{
  "_format": "hh-sol-artifact-1",
  "contractName": "Zeitgeist",
  "sourceName": "contracts/Zeitgeist.sol",
  "abi": [
    {
      "inputs": [],
      "stateMutability": "nonpayable",
      "type": "constructor"
    },
    {
      "anonymous": false,
      "inputs": [
        {
          "indexed": true,
          "internalType": "address",
          "name": "owner",
          "type": "address"
        },
        {
          "indexed": true,
          "internalType": "address",
          "name": "approved",
          "type": "address"
        },
        {
          "indexed": true,
          "internalType": "uint256",
          "name": "tokenId",
          "type": "uint256"
        }
      ],
      "name": "Approval",
      "type": "event"
    },
    {
      "anonymous": false,
      "inputs": [
        {
          "indexed": true,
          "internalType": "address",
          "name": "owner",
          "type": "address"
        },
        {
          "indexed": true,
          "internalType": "address",
          "name": "operator",
          "type": "address"
        },
        {
          "indexed": false,
          "internalType": "bool",
          "name": "approved",
          "type": "bool"
        }
      ],
      "name": "ApprovalForAll",
      "type": "event"
    },
    {
      "anonymous": false,
      "inputs": [
        {
          "indexed": true,
          "internalType": "address",
          "name": "previousOwner",
          "type": "address"
        },
        {
          "indexed": true,
          "internalType": "address",
          "name": "newOwner",
          "type": "address"
        }
      ],
      "name": "OwnershipTransferred",
      "type": "event"
    },
    {
      "anonymous": false,
      "inputs": [
        {
          "indexed": true,
          "internalType": "address",
          "name": "from",
          "type": "address"
        },
        {
          "indexed": true,
          "internalType": "address",
          "name": "to",
          "type": "address"
        },
        {
          "indexed": true,
          "internalType": "uint256",
          "name": "tokenId",
          "type": "uint256"
        }
      ],
      "name": "Transfer",
      "type": "event"
    },
    {
      "inputs": [
        {
          "internalType": "address",
          "name": "to",
          "type": "address"
        },
        {
          "internalType": "uint256",
          "name": "tokenId",
          "type": "uint256"
        }
      ],
      "name": "approve",
      "outputs": [],
      "stateMutability": "nonpayable",
      "type": "function"
    },
    {
      "inputs": [
        {
          "internalType": "address",
          "name": "owner",
          "type": "address"
        }
      ],
      "name": "balanceOf",
      "outputs": [
        {
          "internalType": "uint256",
          "name": "",
          "type": "uint256"
        }
      ],
      "stateMutability": "view",
      "type": "function"
    },
    {
      "inputs": [
        {
          "internalType": "uint256",
          "name": "tokenId",
          "type": "uint256"
        }
      ],
      "name": "getApproved",
      "outputs": [
        {
          "internalType": "address",
          "name": "",
          "type": "address"
        }
      ],
      "stateMutability": "view",
      "type": "function"
    },
    {
      "inputs": [
        {
          "internalType": "address",
          "name": "owner",
          "type": "address"
        },
        {
          "internalType": "address",
          "name": "operator",
          "type": "address"
        }
      ],
      "name": "isApprovedForAll",
      "outputs": [
        {
          "internalType": "bool",
          "name": "",
          "type": "bool"
        }
      ],
      "stateMutability": "view",
      "type": "function"
    },
    {
      "inputs": [
        {
          "internalType": "string",
          "name": "tokenURI",
          "type": "string"
        }
      ],
      "name": "mintNFT",
      "outputs": [
        {
          "internalType": "uint256",
          "name": "",
          "type": "uint256"
        }
      ],
      "stateMutability": "nonpayable",
      "type": "function"
    },
    {
      "inputs": [],
      "name": "name",
      "outputs": [
        {
          "internalType": "string",
          "name": "",
          "type": "string"
        }
      ],
      "stateMutability": "view",
      "type": "function"
    },
    {
      "inputs": [],
      "name": "owner",
      "outputs": [
        {
          "internalType": "address",
          "name": "",
          "type": "address"
        }
      ],
      "stateMutability": "view",
      "type": "function"
    },
    {
      "inputs": [
        {
          "internalType": "uint256",
          "name": "tokenId",
          "type": "uint256"
        }
      ],
      "name": "ownerOf",
      "outputs": [
        {
          "internalType": "address",
          "name": "",
          "type": "address"
        }
      ],
      "stateMutability": "view",
      "type": "function"
    },
    {
      "inputs": [],
      "name": "renounceOwnership",
      "outputs": [],
      "stateMutability": "nonpayable",
      "type": "function"
    },
    {
      "inputs": [
        {
          "internalType": "address",
          "name": "from",
          "type": "address"
        },
        {
          "internalType": "address",
          "name": "to",
          "type": "address"
        },
        {
          "internalType": "uint256",
          "name": "tokenId",
          "type": "uint256"
        }
      ],
      "name": "safeTransferFrom",
      "outputs": [],
      "stateMutability": "nonpayable",
      "type": "function"
    },
    {
      "inputs": [
        {
          "internalType": "address",
          "name": "from",
          "type": "address"
        },
        {
          "internalType": "address",
          "name": "to",
          "type": "address"
        },
        {
          "internalType": "uint256",
          "name": "tokenId",
          "type": "uint256"
        },
        {
          "internalType": "bytes",
          "name": "data",
          "type": "bytes"
        }
      ],
      "name": "safeTransferFrom",
      "outputs": [],
      "stateMutability": "nonpayable",
      "type": "function"
    },
    {
      "inputs": [
        {
          "internalType": "address",
          "name": "operator",
          "type": "address"
        },
        {
          "internalType": "bool",
          "name": "approved",
          "type": "bool"
        }
      ],
      "name": "setApprovalForAll",
      "outputs": [],
      "stateMutability": "nonpayable",
      "type": "function"
    },
    {
      "inputs": [
        {
          "internalType": "bytes4",
          "name": "interfaceId",
          "type": "bytes4"
        }
      ],
      "name": "supportsInterface",
      "outputs": [
        {
          "internalType": "bool",
          "name": "",
          "type": "bool"
        }
      ],
      "stateMutability": "view",
      "type": "function"
    },
    {
      "inputs": [],
      "name": "symbol",
      "outputs": [
        {
          "internalType": "string",
          "name": "",
          "type": "string"
        }
      ],
      "stateMutability": "view",
      "type": "function"
    },
    {
      "inputs": [
        {
          "internalType": "uint256",
          "name": "tokenId",
          "type": "uint256"
        }
      ],
      "name": "tokenURI",
      "outputs": [
        {
          "internalType": "string",
          "name": "",
          "type": "string"
        }
      ],
      "stateMutability": "view",
      "type": "function"
    },
    {
      "inputs": [
        {
          "internalType": "address",
          "name": "from",
          "type": "address"
        },
        {
          "internalType": "address",
          "name": "to",
          "type": "address"
        },
        {
          "internalType": "uint256",
          "name": "tokenId",
          "type": "uint256"
        }
      ],
      "name": "transferFrom",
      "outputs": [],
      "stateMutability": "nonpayable",
      "type": "function"
    },
    {
      "inputs": [
        {
          "internalType": "address",
          "name": "newOwner",
          "type": "address"
        }
      ],
      "name": "transferOwnership",
      "outputs": [],
      "stateMutability": "nonpayable",
      "type": "function"
    }
  ],
  "bytecode": "0x60806040523480156200001157600080fd5b506040518060400160405280600981526020017f5a656974676569737400000000000000000000000000000000000000000000008152506040518060400160405280600481526020017f5a45495400000000000000000000000000000000000000000000000000000000815250816000908051906020019062000096929190620001a6565b508060019080519060200190620000af929190620001a6565b505050620000d2620000c6620000d860201b60201c565b620000e060201b60201c565b620002bb565b600033905090565b6000600760009054906101000a900473ffffffffffffffffffffffffffffffffffffffff16905081600760006101000a81548173ffffffffffffffffffffffffffffffffffffffff021916908373ffffffffffffffffffffffffffffffffffffffff1602179055508173ffffffffffffffffffffffffffffffffffffffff168173ffffffffffffffffffffffffffffffffffffffff167f8be0079c531659141344cd1fd0a4f28419497f9722a3daafe3b4186f6b6457e060405160405180910390a35050565b828054620001b49062000256565b90600052602060002090601f016020900481019282620001d8576000855562000224565b82601f10620001f357805160ff191683800117855562000224565b8280016001018555821562000224579182015b828111156200022357825182559160200191906001019062000206565b5b50905062000233919062000237565b5090565b5b808211156200025257600081600090555060010162000238565b5090565b600060028204905060018216806200026f57607f821691505b602082108114156200028657620002856200028c565b5b50919050565b7f4e487b7100000000000000000000000000000000000000000000000000000000600052602260045260246000fd5b612bce80620002cb6000396000f3fe608060405234801561001057600080fd5b506004361061010b5760003560e01c8063715018a6116100a2578063b88d4fde11610071578063b88d4fde146102a4578063c87b56dd146102c0578063e985e9c5146102f0578063f2fde38b14610320578063fb37e8831461033c5761010b565b8063715018a6146102425780638da5cb5b1461024c57806395d89b411461026a578063a22cb465146102885761010b565b806323b872dd116100de57806323b872dd146101aa57806342842e0e146101c65780636352211e146101e257806370a08231146102125761010b565b806301ffc9a71461011057806306fdde0314610140578063081812fc1461015e578063095ea7b31461018e575b600080fd5b61012a60048036038101906101259190611daa565b61036c565b60405161013791906121ab565b60405180910390f35b61014861044e565b60405161015591906121c6565b60405180910390f35b61017860048036038101906101739190611e3d565b6104e0565b6040516101859190612144565b60405180910390f35b6101a860048036038101906101a39190611d6e565b610526565b005b6101c460048036038101906101bf9190611c68565b61063e565b005b6101e060048036038101906101db9190611c68565b61069e565b005b6101fc60048036038101906101f79190611e3d565b6106be565b6040516102099190612144565b60405180910390f35b61022c60048036038101906102279190611c03565b610770565b60405161023991906123a8565b60405180910390f35b61024a610828565b005b61025461083c565b6040516102619190612144565b60405180910390f35b610272610866565b60405161027f91906121c6565b60405180910390f35b6102a2600480360381019061029d9190611d32565b6108f8565b005b6102be60048036038101906102b99190611cb7565b61090e565b005b6102da60048036038101906102d59190611e3d565b610970565b6040516102e791906121c6565b60405180910390f35b61030a60048036038101906103059190611c2c565b610a83565b60405161031791906121ab565b60405180910390f35b61033a60048036038101906103359190611c03565b610b17565b005b61035660048036038101906103519190611dfc565b610b9b565b60405161036391906123a8565b60405180910390f35b60007f80ac58cd000000000000000000000000000000000000000000000000000000007bffffffffffffffffffffffffffffffffffffffffffffffffffffffff1916827bffffffffffffffffffffffffffffffffffffffffffffffffffffffff1916148061043757507f5b5e139f000000000000000000000000000000000000000000000000000000007bffffffffffffffffffffffffffffffffffffffffffffffffffffffff1916827bffffffffffffffffffffffffffffffffffffffffffffffffffffffff1916145b80610447575061044682610bda565b5b9050919050565b60606000805461045d906125fe565b80601f0160208091040260200160405190810160405280929190818152602001828054610489906125fe565b80156104d65780601f106104ab576101008083540402835291602001916104d6565b820191906000526020600020905b8154815290600101906020018083116104b957829003601f168201915b5050505050905090565b60006104eb82610c44565b6004600083815260200190815260200160002060009054906101000a900473ffffffffffffffffffffffffffffffffffffffff169050919050565b6000610531826106be565b90508073ffffffffffffffffffffffffffffffffffffffff168373ffffffffffffffffffffffffffffffffffffffff1614156105a2576040517f08c379a000000000000000000000000000000000000000000000000000000000815260040161059990612368565b60405180910390fd5b8073ffffffffffffffffffffffffffffffffffffffff166105c1610c8f565b73ffffffffffffffffffffffffffffffffffffffff1614806105f057506105ef816105ea610c8f565b610a83565b5b61062f576040517f08c379a0000000000000000000000000000000000000000000000000000000008152600401610626906122e8565b60405180910390fd5b6106398383610c97565b505050565b61064f610649610c8f565b82610d50565b61068e576040517f08c379a000000000000000000000000000000000000000000000000000000000815260040161068590612388565b60405180910390fd5b610699838383610de5565b505050565b6106b98383836040518060200160405280600081525061090e565b505050565b6000806002600084815260200190815260200160002060009054906101000a900473ffffffffffffffffffffffffffffffffffffffff169050600073ffffffffffffffffffffffffffffffffffffffff168173ffffffffffffffffffffffffffffffffffffffff161415610767576040517f08c379a000000000000000000000000000000000000000000000000000000000815260040161075e90612348565b60405180910390fd5b80915050919050565b60008073ffffffffffffffffffffffffffffffffffffffff168273ffffffffffffffffffffffffffffffffffffffff1614156107e1576040517f08c379a00000000000000000000000000000000000000000000000000000000081526004016107d8906122a8565b60405180910390fd5b600360008373ffffffffffffffffffffffffffffffffffffffff1673ffffffffffffffffffffffffffffffffffffffff168152602001908152602001600020549050919050565b61083061104c565b61083a60006110ca565b565b6000600760009054906101000a900473ffffffffffffffffffffffffffffffffffffffff16905090565b606060018054610875906125fe565b80601f01602080910402602001604051908101604052809291908181526020018280546108a1906125fe565b80156108ee5780601f106108c3576101008083540402835291602001916108ee565b820191906000526020600020905b8154815290600101906020018083116108d157829003601f168201915b5050505050905090565b61090a610903610c8f565b8383611190565b5050565b61091f610919610c8f565b83610d50565b61095e576040517f08c379a000000000000000000000000000000000000000000000000000000000815260040161095590612388565b60405180910390fd5b61096a848484846112fd565b50505050565b606061097b82610c44565b600060066000848152602001908152602001600020805461099b906125fe565b80601f01602080910402602001604051908101604052809291908181526020018280546109c7906125fe565b8015610a145780601f106109e957610100808354040283529160200191610a14565b820191906000526020600020905b8154815290600101906020018083116109f757829003601f168201915b505050505090506000610a25611359565b9050600081511415610a3b578192505050610a7e565b600082511115610a70578082604051602001610a58929190612120565b60405160208183030381529060405292505050610a7e565b610a7984611370565b925050505b919050565b6000600560008473ffffffffffffffffffffffffffffffffffffffff1673ffffffffffffffffffffffffffffffffffffffff16815260200190815260200160002060008373ffffffffffffffffffffffffffffffffffffffff1673ffffffffffffffffffffffffffffffffffffffff16815260200190815260200160002060009054906101000a900460ff16905092915050565b610b1f61104c565b600073ffffffffffffffffffffffffffffffffffffffff168173ffffffffffffffffffffffffffffffffffffffff161415610b8f576040517f08c379a0000000000000000000000000000000000000000000000000000000008152600401610b8690612208565b60405180910390fd5b610b98816110ca565b50565b6000610ba561104c565b610baf60086113d8565b6000610bbb60086113ee565b9050610bc733826113fc565b610bd181846115d6565b80915050919050565b60007f01ffc9a7000000000000000000000000000000000000000000000000000000007bffffffffffffffffffffffffffffffffffffffffffffffffffffffff1916827bffffffffffffffffffffffffffffffffffffffffffffffffffffffff1916149050919050565b610c4d8161164a565b610c8c576040517f08c379a0000000000000000000000000000000000000000000000000000000008152600401610c8390612348565b60405180910390fd5b50565b600033905090565b816004600083815260200190815260200160002060006101000a81548173ffffffffffffffffffffffffffffffffffffffff021916908373ffffffffffffffffffffffffffffffffffffffff160217905550808273ffffffffffffffffffffffffffffffffffffffff16610d0a836106be565b73ffffffffffffffffffffffffffffffffffffffff167f8c5be1e5ebec7d5bd14f71427d1e84f3dd0314c0f7b2291e5b200ac8c7c3b92560405160405180910390a45050565b600080610d5c836106be565b90508073ffffffffffffffffffffffffffffffffffffffff168473ffffffffffffffffffffffffffffffffffffffff161480610d9e5750610d9d8185610a83565b5b80610ddc57508373ffffffffffffffffffffffffffffffffffffffff16610dc4846104e0565b73ffffffffffffffffffffffffffffffffffffffff16145b91505092915050565b8273ffffffffffffffffffffffffffffffffffffffff16610e05826106be565b73ffffffffffffffffffffffffffffffffffffffff1614610e5b576040517f08c379a0000000000000000000000000000000000000000000000000000000008152600401610e5290612228565b60405180910390fd5b600073ffffffffffffffffffffffffffffffffffffffff168273ffffffffffffffffffffffffffffffffffffffff161415610ecb576040517f08c379a0000000000000000000000000000000000000000000000000000000008152600401610ec290612268565b60405180910390fd5b610ed68383836116b6565b610ee1600082610c97565b6001600360008573ffffffffffffffffffffffffffffffffffffffff1673ffffffffffffffffffffffffffffffffffffffff1681526020019081526020016000206000828254610f319190612514565b925050819055506001600360008473ffffffffffffffffffffffffffffffffffffffff1673ffffffffffffffffffffffffffffffffffffffff1681526020019081526020016000206000828254610f88919061248d565b92505081905550816002600083815260200190815260200160002060006101000a81548173ffffffffffffffffffffffffffffffffffffffff021916908373ffffffffffffffffffffffffffffffffffffffff160217905550808273ffffffffffffffffffffffffffffffffffffffff168473ffffffffffffffffffffffffffffffffffffffff167fddf252ad1be2c89b69c2b068fc378daa952ba7f163c4a11628f55a4df523b3ef60405160405180910390a46110478383836116bb565b505050565b611054610c8f565b73ffffffffffffffffffffffffffffffffffffffff1661107261083c565b73ffffffffffffffffffffffffffffffffffffffff16146110c8576040517f08c379a00000000000000000000000000000000000000000000000000000000081526004016110bf90612328565b60405180910390fd5b565b6000600760009054906101000a900473ffffffffffffffffffffffffffffffffffffffff16905081600760006101000a81548173ffffffffffffffffffffffffffffffffffffffff021916908373ffffffffffffffffffffffffffffffffffffffff1602179055508173ffffffffffffffffffffffffffffffffffffffff168173ffffffffffffffffffffffffffffffffffffffff167f8be0079c531659141344cd1fd0a4f28419497f9722a3daafe3b4186f6b6457e060405160405180910390a35050565b8173ffffffffffffffffffffffffffffffffffffffff168373ffffffffffffffffffffffffffffffffffffffff1614156111ff576040517f08c379a00000000000000000000000000000000000000000000000000000000081526004016111f690612288565b60405180910390fd5b80600560008573ffffffffffffffffffffffffffffffffffffffff1673ffffffffffffffffffffffffffffffffffffffff16815260200190815260200160002060008473ffffffffffffffffffffffffffffffffffffffff1673ffffffffffffffffffffffffffffffffffffffff16815260200190815260200160002060006101000a81548160ff0219169083151502179055508173ffffffffffffffffffffffffffffffffffffffff168373ffffffffffffffffffffffffffffffffffffffff167f17307eab39ab6107e8899845ad3d59bd9653f200f220920489ca2b5937696c31836040516112f091906121ab565b60405180910390a3505050565b611308848484610de5565b611314848484846116c0565b611353576040517f08c379a000000000000000000000000000000000000000000000000000000000815260040161134a906121e8565b60405180910390fd5b50505050565b606060405180602001604052806000815250905090565b606061137b82610c44565b6000611385611359565b905060008151116113a557604051806020016040528060008152506113d0565b806113af84611857565b6040516020016113c0929190612120565b6040516020818303038152906040525b915050919050565b6001816000016000828254019250508190555050565b600081600001549050919050565b600073ffffffffffffffffffffffffffffffffffffffff168273ffffffffffffffffffffffffffffffffffffffff16141561146c576040517f08c379a000000000000000000000000000000000000000000000000000000000815260040161146390612308565b60405180910390fd5b6114758161164a565b156114b5576040517f08c379a00000000000000000000000000000000000000000000000000000000081526004016114ac90612248565b60405180910390fd5b6114c1600083836116b6565b6001600360008473ffffffffffffffffffffffffffffffffffffffff1673ffffffffffffffffffffffffffffffffffffffff1681526020019081526020016000206000828254611511919061248d565b92505081905550816002600083815260200190815260200160002060006101000a81548173ffffffffffffffffffffffffffffffffffffffff021916908373ffffffffffffffffffffffffffffffffffffffff160217905550808273ffffffffffffffffffffffffffffffffffffffff16600073ffffffffffffffffffffffffffffffffffffffff167fddf252ad1be2c89b69c2b068fc378daa952ba7f163c4a11628f55a4df523b3ef60405160405180910390a46115d2600083836116bb565b5050565b6115df8261164a565b61161e576040517f08c379a0000000000000000000000000000000000000000000000000000000008152600401611615906122c8565b60405180910390fd5b80600660008481526020019081526020016000209080519060200190611645929190611a27565b505050565b60008073ffffffffffffffffffffffffffffffffffffffff166002600084815260200190815260200160002060009054906101000a900473ffffffffffffffffffffffffffffffffffffffff1673ffffffffffffffffffffffffffffffffffffffff1614159050919050565b505050565b505050565b60006116e18473ffffffffffffffffffffffffffffffffffffffff16611a04565b1561184a578373ffffffffffffffffffffffffffffffffffffffff1663150b7a0261170a610c8f565b8786866040518563ffffffff1660e01b815260040161172c949392919061215f565b602060405180830381600087803b15801561174657600080fd5b505af192505050801561177757506040513d601f19601f820116820180604052508101906117749190611dd3565b60015b6117fa573d80600081146117a7576040519150601f19603f3d011682016040523d82523d6000602084013e6117ac565b606091505b506000815114156117f2576040517f08c379a00000000000000000000000000000000000000000000000000000000081526004016117e9906121e8565b60405180910390fd5b805181602001fd5b63150b7a0260e01b7bffffffffffffffffffffffffffffffffffffffffffffffffffffffff1916817bffffffffffffffffffffffffffffffffffffffffffffffffffffffff19161491505061184f565b600190505b949350505050565b6060600082141561189f576040518060400160405280600181526020017f300000000000000000000000000000000000000000000000000000000000000081525090506119ff565b600082905060005b600082146118d15780806118ba90612661565b915050600a826118ca91906124e3565b91506118a7565b60008167ffffffffffffffff811115611913577f4e487b7100000000000000000000000000000000000000000000000000000000600052604160045260246000fd5b6040519080825280601f01601f1916602001820160405280156119455781602001600182028036833780820191505090505b5090505b600085146119f85760018261195e9190612514565b9150600a8561196d91906126aa565b6030611979919061248d565b60f81b8183815181106119b5577f4e487b7100000000000000000000000000000000000000000000000000000000600052603260045260246000fd5b60200101907effffffffffffffffffffffffffffffffffffffffffffffffffffffffffffff1916908160001a905350600a856119f191906124e3565b9450611949565b8093505050505b919050565b6000808273ffffffffffffffffffffffffffffffffffffffff163b119050919050565b828054611a33906125fe565b90600052602060002090601f016020900481019282611a555760008555611a9c565b82601f10611a6e57805160ff1916838001178555611a9c565b82800160010185558215611a9c579182015b82811115611a9b578251825591602001919060010190611a80565b5b509050611aa99190611aad565b5090565b5b80821115611ac6576000816000905550600101611aae565b5090565b6000611add611ad8846123e8565b6123c3565b905082815260208101848484011115611af557600080fd5b611b008482856125bc565b509392505050565b6000611b1b611b1684612419565b6123c3565b905082815260208101848484011115611b3357600080fd5b611b3e8482856125bc565b509392505050565b600081359050611b5581612b3c565b92915050565b600081359050611b6a81612b53565b92915050565b600081359050611b7f81612b6a565b92915050565b600081519050611b9481612b6a565b92915050565b600082601f830112611bab57600080fd5b8135611bbb848260208601611aca565b91505092915050565b600082601f830112611bd557600080fd5b8135611be5848260208601611b08565b91505092915050565b600081359050611bfd81612b81565b92915050565b600060208284031215611c1557600080fd5b6000611c2384828501611b46565b91505092915050565b60008060408385031215611c3f57600080fd5b6000611c4d85828601611b46565b9250506020611c5e85828601611b46565b9150509250929050565b600080600060608486031215611c7d57600080fd5b6000611c8b86828701611b46565b9350506020611c9c86828701611b46565b9250506040611cad86828701611bee565b9150509250925092565b60008060008060808587031215611ccd57600080fd5b6000611cdb87828801611b46565b9450506020611cec87828801611b46565b9350506040611cfd87828801611bee565b925050606085013567ffffffffffffffff811115611d1a57600080fd5b611d2687828801611b9a565b91505092959194509250565b60008060408385031215611d4557600080fd5b6000611d5385828601611b46565b9250506020611d6485828601611b5b565b9150509250929050565b60008060408385031215611d8157600080fd5b6000611d8f85828601611b46565b9250506020611da085828601611bee565b9150509250929050565b600060208284031215611dbc57600080fd5b6000611dca84828501611b70565b91505092915050565b600060208284031215611de557600080fd5b6000611df384828501611b85565b91505092915050565b600060208284031215611e0e57600080fd5b600082013567ffffffffffffffff811115611e2857600080fd5b611e3484828501611bc4565b91505092915050565b600060208284031215611e4f57600080fd5b6000611e5d84828501611bee565b91505092915050565b611e6f81612548565b82525050565b611e7e8161255a565b82525050565b6000611e8f8261244a565b611e998185612460565b9350611ea98185602086016125cb565b611eb281612797565b840191505092915050565b6000611ec882612455565b611ed28185612471565b9350611ee28185602086016125cb565b611eeb81612797565b840191505092915050565b6000611f0182612455565b611f0b8185612482565b9350611f1b8185602086016125cb565b80840191505092915050565b6000611f34603283612471565b9150611f3f826127a8565b604082019050919050565b6000611f57602683612471565b9150611f62826127f7565b604082019050919050565b6000611f7a602583612471565b9150611f8582612846565b604082019050919050565b6000611f9d601c83612471565b9150611fa882612895565b602082019050919050565b6000611fc0602483612471565b9150611fcb826128be565b604082019050919050565b6000611fe3601983612471565b9150611fee8261290d565b602082019050919050565b6000612006602983612471565b915061201182612936565b604082019050919050565b6000612029602e83612471565b915061203482612985565b604082019050919050565b600061204c603e83612471565b9150612057826129d4565b604082019050919050565b600061206f602083612471565b915061207a82612a23565b602082019050919050565b6000612092602083612471565b915061209d82612a4c565b602082019050919050565b60006120b5601883612471565b91506120c082612a75565b602082019050919050565b60006120d8602183612471565b91506120e382612a9e565b604082019050919050565b60006120fb602e83612471565b915061210682612aed565b604082019050919050565b61211a816125b2565b82525050565b600061212c8285611ef6565b91506121388284611ef6565b91508190509392505050565b60006020820190506121596000830184611e66565b92915050565b60006080820190506121746000830187611e66565b6121816020830186611e66565b61218e6040830185612111565b81810360608301526121a08184611e84565b905095945050505050565b60006020820190506121c06000830184611e75565b92915050565b600060208201905081810360008301526121e08184611ebd565b905092915050565b6000602082019050818103600083015261220181611f27565b9050919050565b6000602082019050818103600083015261222181611f4a565b9050919050565b6000602082019050818103600083015261224181611f6d565b9050919050565b6000602082019050818103600083015261226181611f90565b9050919050565b6000602082019050818103600083015261228181611fb3565b9050919050565b600060208201905081810360008301526122a181611fd6565b9050919050565b600060208201905081810360008301526122c181611ff9565b9050919050565b600060208201905081810360008301526122e18161201c565b9050919050565b600060208201905081810360008301526123018161203f565b9050919050565b6000602082019050818103600083015261232181612062565b9050919050565b6000602082019050818103600083015261234181612085565b9050919050565b60006020820190508181036000830152612361816120a8565b9050919050565b60006020820190508181036000830152612381816120cb565b9050919050565b600060208201905081810360008301526123a1816120ee565b9050919050565b60006020820190506123bd6000830184612111565b92915050565b60006123cd6123de565b90506123d98282612630565b919050565b6000604051905090565b600067ffffffffffffffff82111561240357612402612768565b5b61240c82612797565b9050602081019050919050565b600067ffffffffffffffff82111561243457612433612768565b5b61243d82612797565b9050602081019050919050565b600081519050919050565b600081519050919050565b600082825260208201905092915050565b600082825260208201905092915050565b600081905092915050565b6000612498826125b2565b91506124a3836125b2565b9250827fffffffffffffffffffffffffffffffffffffffffffffffffffffffffffffffff038211156124d8576124d76126db565b5b828201905092915050565b60006124ee826125b2565b91506124f9836125b2565b9250826125095761250861270a565b5b828204905092915050565b600061251f826125b2565b915061252a836125b2565b92508282101561253d5761253c6126db565b5b828203905092915050565b600061255382612592565b9050919050565b60008115159050919050565b60007fffffffff0000000000000000000000000000000000000000000000000000000082169050919050565b600073ffffffffffffffffffffffffffffffffffffffff82169050919050565b6000819050919050565b82818337600083830152505050565b60005b838110156125e95780820151818401526020810190506125ce565b838111156125f8576000848401525b50505050565b6000600282049050600182168061261657607f821691505b6020821081141561262a57612629612739565b5b50919050565b61263982612797565b810181811067ffffffffffffffff8211171561265857612657612768565b5b80604052505050565b600061266c826125b2565b91507fffffffffffffffffffffffffffffffffffffffffffffffffffffffffffffffff82141561269f5761269e6126db565b5b600182019050919050565b60006126b5826125b2565b91506126c0836125b2565b9250826126d0576126cf61270a565b5b828206905092915050565b7f4e487b7100000000000000000000000000000000000000000000000000000000600052601160045260246000fd5b7f4e487b7100000000000000000000000000000000000000000000000000000000600052601260045260246000fd5b7f4e487b7100000000000000000000000000000000000000000000000000000000600052602260045260246000fd5b7f4e487b7100000000000000000000000000000000000000000000000000000000600052604160045260246000fd5b6000601f19601f8301169050919050565b7f4552433732313a207472616e7366657220746f206e6f6e20455243373231526560008201527f63656976657220696d706c656d656e7465720000000000000000000000000000602082015250565b7f4f776e61626c653a206e6577206f776e657220697320746865207a65726f206160008201527f6464726573730000000000000000000000000000000000000000000000000000602082015250565b7f4552433732313a207472616e736665722066726f6d20696e636f72726563742060008201527f6f776e6572000000000000000000000000000000000000000000000000000000602082015250565b7f4552433732313a20746f6b656e20616c7265616479206d696e74656400000000600082015250565b7f4552433732313a207472616e7366657220746f20746865207a65726f2061646460008201527f7265737300000000000000000000000000000000000000000000000000000000602082015250565b7f4552433732313a20617070726f766520746f2063616c6c657200000000000000600082015250565b7f4552433732313a2061646472657373207a65726f206973206e6f74206120766160008201527f6c6964206f776e65720000000000000000000000000000000000000000000000602082015250565b7f45524337323155524953746f726167653a2055524920736574206f66206e6f6e60008201527f6578697374656e7420746f6b656e000000000000000000000000000000000000602082015250565b7f4552433732313a20617070726f76652063616c6c6572206973206e6f7420746f60008201527f6b656e206f776e6572206e6f7220617070726f76656420666f7220616c6c0000602082015250565b7f4552433732313a206d696e7420746f20746865207a65726f2061646472657373600082015250565b7f4f776e61626c653a2063616c6c6572206973206e6f7420746865206f776e6572600082015250565b7f4552433732313a20696e76616c696420746f6b656e2049440000000000000000600082015250565b7f4552433732313a20617070726f76616c20746f2063757272656e74206f776e6560008201527f7200000000000000000000000000000000000000000000000000000000000000602082015250565b7f4552433732313a2063616c6c6572206973206e6f7420746f6b656e206f776e6560008201527f72206e6f7220617070726f766564000000000000000000000000000000000000602082015250565b612b4581612548565b8114612b5057600080fd5b50565b612b5c8161255a565b8114612b6757600080fd5b50565b612b7381612566565b8114612b7e57600080fd5b50565b612b8a816125b2565b8114612b9557600080fd5b5056fea26469706673582212200ffc8237f26986f2ebb15ffe7509cf24684f8ef7c34a0e8eae7e2fa189c05acc64736f6c63430008040033",
  "linkReferences": {},
  "deployedLinkReferences": {}
}