{
  "_format": "hh-sol-artifact-1",
  "contractName": "Zeitgeist",
  "sourceName": "contracts/Zeitgeist.sol",
  "abi": [
    {
      "inputs": [],
      "stateMutability": "nonpayable",
      "type": "constructor"
    },
    {
      "anonymous": false,
      "inputs": [
        {
          "indexed": true,
          "internalType": "address",
          "name": "owner",
          "type": "address"
        },
        {
          "indexed": true,
          "internalType": "address",
          "name": "approved",
          "type": "address"
        },
        {
          "indexed": true,
          "internalType": "uint256",
          "name": "tokenId",
          "type": "uint256"
        }
      ],
      "name": "Approval",
      "type": "event"
    },
    {
      "anonymous": false,
      "inputs": [
        {
          "indexed": true,
          "internalType": "address",
          "name": "owner",
          "type": "address"
        },
        {
          "indexed": true,
          "internalType": "address",
          "name": "operator",
          "type": "address"
        },
        {
          "indexed": false,
          "internalType": "bool",
          "name": "approved",
          "type": "bool"
        }
      ],
      "name": "ApprovalForAll",
      "type": "event"
    },
    {
      "anonymous": false,
      "inputs": [
        {
          "indexed": true,
          "internalType": "address",
          "name": "previousOwner",
          "type": "address"
        },
        {
          "indexed": true,
          "internalType": "address",
          "name": "newOwner",
          "type": "address"
        }
      ],
      "name": "OwnershipTransferred",
      "type": "event"
    },
    {
      "anonymous": false,
      "inputs": [
        {
          "indexed": true,
          "internalType": "address",
          "name": "from",
          "type": "address"
        },
        {
          "indexed": true,
          "internalType": "address",
          "name": "to",
          "type": "address"
        },
        {
          "indexed": true,
          "internalType": "uint256",
          "name": "tokenId",
          "type": "uint256"
        }
      ],
      "name": "Transfer",
      "type": "event"
    },
    {
      "inputs": [
        {
          "internalType": "address",
          "name": "to",
          "type": "address"
        },
        {
          "internalType": "uint256",
          "name": "tokenId",
          "type": "uint256"
        }
      ],
      "name": "approve",
      "outputs": [],
      "stateMutability": "nonpayable",
      "type": "function"
    },
    {
      "inputs": [
        {
          "internalType": "address",
          "name": "owner",
          "type": "address"
        }
      ],
      "name": "balanceOf",
      "outputs": [
        {
          "internalType": "uint256",
          "name": "",
          "type": "uint256"
        }
      ],
      "stateMutability": "view",
      "type": "function"
    },
    {
      "inputs": [
        {
          "internalType": "uint256",
          "name": "tokenId",
          "type": "uint256"
        }
      ],
      "name": "getApproved",
      "outputs": [
        {
          "internalType": "address",
          "name": "",
          "type": "address"
        }
      ],
      "stateMutability": "view",
      "type": "function"
    },
    {
      "inputs": [
        {
          "internalType": "address",
          "name": "owner",
          "type": "address"
        },
        {
          "internalType": "address",
          "name": "operator",
          "type": "address"
        }
      ],
      "name": "isApprovedForAll",
      "outputs": [
        {
          "internalType": "bool",
          "name": "",
          "type": "bool"
        }
      ],
      "stateMutability": "view",
      "type": "function"
    },
    {
      "inputs": [
        {
          "internalType": "string",
          "name": "tokenURI",
          "type": "string"
        }
      ],
      "name": "mintNFT",
      "outputs": [
        {
          "internalType": "uint256",
          "name": "",
          "type": "uint256"
        }
      ],
      "stateMutability": "nonpayable",
      "type": "function"
    },
    {
      "inputs": [],
      "name": "name",
      "outputs": [
        {
          "internalType": "string",
          "name": "",
          "type": "string"
        }
      ],
      "stateMutability": "view",
      "type": "function"
    },
    {
      "inputs": [],
      "name": "owner",
      "outputs": [
        {
          "internalType": "address",
          "name": "",
          "type": "address"
        }
      ],
      "stateMutability": "view",
      "type": "function"
    },
    {
      "inputs": [
        {
          "internalType": "uint256",
          "name": "tokenId",
          "type": "uint256"
        }
      ],
      "name": "ownerOf",
      "outputs": [
        {
          "internalType": "address",
          "name": "",
          "type": "address"
        }
      ],
      "stateMutability": "view",
      "type": "function"
    },
    {
      "inputs": [],
      "name": "renounceOwnership",
      "outputs": [],
      "stateMutability": "nonpayable",
      "type": "function"
    },
    {
      "inputs": [
        {
          "internalType": "address",
          "name": "from",
          "type": "address"
        },
        {
          "internalType": "address",
          "name": "to",
          "type": "address"
        },
        {
          "internalType": "uint256",
          "name": "tokenId",
          "type": "uint256"
        }
      ],
      "name": "safeTransferFrom",
      "outputs": [],
      "stateMutability": "nonpayable",
      "type": "function"
    },
    {
      "inputs": [
        {
          "internalType": "address",
          "name": "from",
          "type": "address"
        },
        {
          "internalType": "address",
          "name": "to",
          "type": "address"
        },
        {
          "internalType": "uint256",
          "name": "tokenId",
          "type": "uint256"
        },
        {
          "internalType": "bytes",
          "name": "data",
          "type": "bytes"
        }
      ],
      "name": "safeTransferFrom",
      "outputs": [],
      "stateMutability": "nonpayable",
      "type": "function"
    },
    {
      "inputs": [
        {
          "internalType": "address",
          "name": "operator",
          "type": "address"
        },
        {
          "internalType": "bool",
          "name": "approved",
          "type": "bool"
        }
      ],
      "name": "setApprovalForAll",
      "outputs": [],
      "stateMutability": "nonpayable",
      "type": "function"
    },
    {
      "inputs": [
        {
          "internalType": "bytes4",
          "name": "interfaceId",
          "type": "bytes4"
        }
      ],
      "name": "supportsInterface",
      "outputs": [
        {
          "internalType": "bool",
          "name": "",
          "type": "bool"
        }
      ],
      "stateMutability": "view",
      "type": "function"
    },
    {
      "inputs": [],
      "name": "symbol",
      "outputs": [
        {
          "internalType": "string",
          "name": "",
          "type": "string"
        }
      ],
      "stateMutability": "view",
      "type": "function"
    },
    {
      "inputs": [
        {
          "internalType": "uint256",
          "name": "tokenId",
          "type": "uint256"
        }
      ],
      "name": "tokenURI",
      "outputs": [
        {
          "internalType": "string",
          "name": "",
          "type": "string"
        }
      ],
      "stateMutability": "view",
      "type": "function"
    },
    {
      "inputs": [
        {
          "internalType": "address",
          "name": "from",
          "type": "address"
        },
        {
          "internalType": "address",
          "name": "to",
          "type": "address"
        },
        {
          "internalType": "uint256",
          "name": "tokenId",
          "type": "uint256"
        }
      ],
      "name": "transferFrom",
      "outputs": [],
      "stateMutability": "nonpayable",
      "type": "function"
    },
    {
      "inputs": [
        {
          "internalType": "address",
          "name": "newOwner",
          "type": "address"
        }
      ],
      "name": "transferOwnership",
      "outputs": [],
      "stateMutability": "nonpayable",
      "type": "function"
    },
    {
      "inputs": [
        {
          "internalType": "uint256",
          "name": "tokenId",
          "type": "uint256"
        },
        {
          "internalType": "string",
          "name": "tokenURI",
          "type": "string"
        }
      ],
      "name": "updateNFT",
      "outputs": [
        {
          "internalType": "uint256",
          "name": "",
          "type": "uint256"
        }
      ],
      "stateMutability": "nonpayable",
      "type": "function"
    },
    {
      "inputs": [],
      "name": "withdraw",
      "outputs": [],
      "stateMutability": "payable",
      "type": "function"
    }
  ],
  "bytecode": "0x60806040523480156200001157600080fd5b506040518060400160405280600981526020017f5a656974676569737400000000000000000000000000000000000000000000008152506040518060400160405280600481526020017f5a45495400000000000000000000000000000000000000000000000000000000815250816000908051906020019062000096929190620001a6565b508060019080519060200190620000af929190620001a6565b505050620000d2620000c6620000d860201b60201c565b620000e060201b60201c565b620002bb565b600033905090565b6000600760009054906101000a900473ffffffffffffffffffffffffffffffffffffffff16905081600760006101000a81548173ffffffffffffffffffffffffffffffffffffffff021916908373ffffffffffffffffffffffffffffffffffffffff1602179055508173ffffffffffffffffffffffffffffffffffffffff168173ffffffffffffffffffffffffffffffffffffffff167f8be0079c531659141344cd1fd0a4f28419497f9722a3daafe3b4186f6b6457e060405160405180910390a35050565b828054620001b49062000256565b90600052602060002090601f016020900481019282620001d8576000855562000224565b82601f10620001f357805160ff191683800117855562000224565b8280016001018555821562000224579182015b828111156200022357825182559160200191906001019062000206565b5b50905062000233919062000237565b5090565b5b808211156200025257600081600090555060010162000238565b5090565b600060028204905060018216806200026f57607f821691505b602082108114156200028657620002856200028c565b5b50919050565b7f4e487b7100000000000000000000000000000000000000000000000000000000600052602260045260246000fd5b612f8a80620002cb6000396000f3fe6080604052600436106101145760003560e01c8063715018a6116100a0578063c318d8f811610064578063c318d8f81461037c578063c87b56dd146103b9578063e985e9c5146103f6578063f2fde38b14610433578063fb37e8831461045c57610114565b8063715018a6146102bd5780638da5cb5b146102d457806395d89b41146102ff578063a22cb4651461032a578063b88d4fde1461035357610114565b806323b872dd116100e757806323b872dd146101e75780633ccfd60b1461021057806342842e0e1461021a5780636352211e1461024357806370a082311461028057610114565b806301ffc9a71461011957806306fdde0314610156578063081812fc14610181578063095ea7b3146101be575b600080fd5b34801561012557600080fd5b50610140600480360381019061013b9190611ff4565b610499565b60405161014d91906124c7565b60405180910390f35b34801561016257600080fd5b5061016b61057b565b60405161017891906124e2565b60405180910390f35b34801561018d57600080fd5b506101a860048036038101906101a39190612087565b61060d565b6040516101b59190612460565b60405180910390f35b3480156101ca57600080fd5b506101e560048036038101906101e09190611fb8565b610653565b005b3480156101f357600080fd5b5061020e60048036038101906102099190611eb2565b61076b565b005b6102186107cb565b005b34801561022657600080fd5b50610241600480360381019061023c9190611eb2565b6108cb565b005b34801561024f57600080fd5b5061026a60048036038101906102659190612087565b6108eb565b6040516102779190612460565b60405180910390f35b34801561028c57600080fd5b506102a760048036038101906102a29190611e4d565b61099d565b6040516102b49190612704565b60405180910390f35b3480156102c957600080fd5b506102d2610a55565b005b3480156102e057600080fd5b506102e9610a69565b6040516102f69190612460565b60405180910390f35b34801561030b57600080fd5b50610314610a93565b60405161032191906124e2565b60405180910390f35b34801561033657600080fd5b50610351600480360381019061034c9190611f7c565b610b25565b005b34801561035f57600080fd5b5061037a60048036038101906103759190611f01565b610b3b565b005b34801561038857600080fd5b506103a3600480360381019061039e91906120b0565b610b9d565b6040516103b09190612704565b60405180910390f35b3480156103c557600080fd5b506103e060048036038101906103db9190612087565b610bba565b6040516103ed91906124e2565b60405180910390f35b34801561040257600080fd5b5061041d60048036038101906104189190611e76565b610ccd565b60405161042a91906124c7565b60405180910390f35b34801561043f57600080fd5b5061045a60048036038101906104559190611e4d565b610d61565b005b34801561046857600080fd5b50610483600480360381019061047e9190612046565b610de5565b6040516104909190612704565b60405180910390f35b60007f80ac58cd000000000000000000000000000000000000000000000000000000007bffffffffffffffffffffffffffffffffffffffffffffffffffffffff1916827bffffffffffffffffffffffffffffffffffffffffffffffffffffffff1916148061056457507f5b5e139f000000000000000000000000000000000000000000000000000000007bffffffffffffffffffffffffffffffffffffffffffffffffffffffff1916827bffffffffffffffffffffffffffffffffffffffffffffffffffffffff1916145b80610574575061057382610e24565b5b9050919050565b60606000805461058a90612965565b80601f01602080910402602001604051908101604052809291908181526020018280546105b690612965565b80156106035780601f106105d857610100808354040283529160200191610603565b820191906000526020600020905b8154815290600101906020018083116105e657829003601f168201915b5050505050905090565b600061061882610e8e565b6004600083815260200190815260200160002060009054906101000a900473ffffffffffffffffffffffffffffffffffffffff169050919050565b600061065e826108eb565b90508073ffffffffffffffffffffffffffffffffffffffff168373ffffffffffffffffffffffffffffffffffffffff1614156106cf576040517f08c379a00000000000000000000000000000000000000000000000000000000081526004016106c6906126a4565b60405180910390fd5b8073ffffffffffffffffffffffffffffffffffffffff166106ee610ed9565b73ffffffffffffffffffffffffffffffffffffffff16148061071d575061071c81610717610ed9565b610ccd565b5b61075c576040517f08c379a000000000000000000000000000000000000000000000000000000000815260040161075390612604565b60405180910390fd5b6107668383610ee1565b505050565b61077c610776610ed9565b82610f9a565b6107bb576040517f08c379a00000000000000000000000000000000000000000000000000000000081526004016107b2906126e4565b60405180910390fd5b6107c683838361102f565b505050565b6107d3611296565b60004790506000811161081b576040517f08c379a000000000000000000000000000000000000000000000000000000000815260040161081290612644565b60405180910390fd5b60003373ffffffffffffffffffffffffffffffffffffffff16826040516108419061244b565b60006040518083038185875af1925050503d806000811461087e576040519150601f19603f3d011682016040523d82523d6000602084013e610883565b606091505b50509050806108c7576040517f08c379a00000000000000000000000000000000000000000000000000000000081526004016108be906126c4565b60405180910390fd5b5050565b6108e683838360405180602001604052806000815250610b3b565b505050565b6000806002600084815260200190815260200160002060009054906101000a900473ffffffffffffffffffffffffffffffffffffffff169050600073ffffffffffffffffffffffffffffffffffffffff168173ffffffffffffffffffffffffffffffffffffffff161415610994576040517f08c379a000000000000000000000000000000000000000000000000000000000815260040161098b90612684565b60405180910390fd5b80915050919050565b60008073ffffffffffffffffffffffffffffffffffffffff168273ffffffffffffffffffffffffffffffffffffffff161415610a0e576040517f08c379a0000000000000000000000000000000000000000000000000000000008152600401610a05906125c4565b60405180910390fd5b600360008373ffffffffffffffffffffffffffffffffffffffff1673ffffffffffffffffffffffffffffffffffffffff168152602001908152602001600020549050919050565b610a5d611296565b610a676000611314565b565b6000600760009054906101000a900473ffffffffffffffffffffffffffffffffffffffff16905090565b606060018054610aa290612965565b80601f0160208091040260200160405190810160405280929190818152602001828054610ace90612965565b8015610b1b5780601f10610af057610100808354040283529160200191610b1b565b820191906000526020600020905b815481529060010190602001808311610afe57829003601f168201915b5050505050905090565b610b37610b30610ed9565b83836113da565b5050565b610b4c610b46610ed9565b83610f9a565b610b8b576040517f08c379a0000000000000000000000000000000000000000000000000000000008152600401610b82906126e4565b60405180910390fd5b610b9784848484611547565b50505050565b6000610ba7611296565b610bb183836115a3565b82905092915050565b6060610bc582610e8e565b6000600660008481526020019081526020016000208054610be590612965565b80601f0160208091040260200160405190810160405280929190818152602001828054610c1190612965565b8015610c5e5780601f10610c3357610100808354040283529160200191610c5e565b820191906000526020600020905b815481529060010190602001808311610c4157829003601f168201915b505050505090506000610c6f611617565b9050600081511415610c85578192505050610cc8565b600082511115610cba578082604051602001610ca2929190612427565b60405160208183030381529060405292505050610cc8565b610cc38461162e565b925050505b919050565b6000600560008473ffffffffffffffffffffffffffffffffffffffff1673ffffffffffffffffffffffffffffffffffffffff16815260200190815260200160002060008373ffffffffffffffffffffffffffffffffffffffff1673ffffffffffffffffffffffffffffffffffffffff16815260200190815260200160002060009054906101000a900460ff16905092915050565b610d69611296565b600073ffffffffffffffffffffffffffffffffffffffff168173ffffffffffffffffffffffffffffffffffffffff161415610dd9576040517f08c379a0000000000000000000000000000000000000000000000000000000008152600401610dd090612524565b60405180910390fd5b610de281611314565b50565b6000610def611296565b610df96008611696565b6000610e0560086116ac565b9050610e1133826116ba565b610e1b81846115a3565b80915050919050565b60007f01ffc9a7000000000000000000000000000000000000000000000000000000007bffffffffffffffffffffffffffffffffffffffffffffffffffffffff1916827bffffffffffffffffffffffffffffffffffffffffffffffffffffffff1916149050919050565b610e9781611894565b610ed6576040517f08c379a0000000000000000000000000000000000000000000000000000000008152600401610ecd90612684565b60405180910390fd5b50565b600033905090565b816004600083815260200190815260200160002060006101000a81548173ffffffffffffffffffffffffffffffffffffffff021916908373ffffffffffffffffffffffffffffffffffffffff160217905550808273ffffffffffffffffffffffffffffffffffffffff16610f54836108eb565b73ffffffffffffffffffffffffffffffffffffffff167f8c5be1e5ebec7d5bd14f71427d1e84f3dd0314c0f7b2291e5b200ac8c7c3b92560405160405180910390a45050565b600080610fa6836108eb565b90508073ffffffffffffffffffffffffffffffffffffffff168473ffffffffffffffffffffffffffffffffffffffff161480610fe85750610fe78185610ccd565b5b8061102657508373ffffffffffffffffffffffffffffffffffffffff1661100e8461060d565b73ffffffffffffffffffffffffffffffffffffffff16145b91505092915050565b8273ffffffffffffffffffffffffffffffffffffffff1661104f826108eb565b73ffffffffffffffffffffffffffffffffffffffff16146110a5576040517f08c379a000000000000000000000000000000000000000000000000000000000815260040161109c90612544565b60405180910390fd5b600073ffffffffffffffffffffffffffffffffffffffff168273ffffffffffffffffffffffffffffffffffffffff161415611115576040517f08c379a000000000000000000000000000000000000000000000000000000000815260040161110c90612584565b60405180910390fd5b611120838383611900565b61112b600082610ee1565b6001600360008573ffffffffffffffffffffffffffffffffffffffff1673ffffffffffffffffffffffffffffffffffffffff168152602001908152602001600020600082825461117b919061287b565b925050819055506001600360008473ffffffffffffffffffffffffffffffffffffffff1673ffffffffffffffffffffffffffffffffffffffff16815260200190815260200160002060008282546111d291906127f4565b92505081905550816002600083815260200190815260200160002060006101000a81548173ffffffffffffffffffffffffffffffffffffffff021916908373ffffffffffffffffffffffffffffffffffffffff160217905550808273ffffffffffffffffffffffffffffffffffffffff168473ffffffffffffffffffffffffffffffffffffffff167fddf252ad1be2c89b69c2b068fc378daa952ba7f163c4a11628f55a4df523b3ef60405160405180910390a4611291838383611905565b505050565b61129e610ed9565b73ffffffffffffffffffffffffffffffffffffffff166112bc610a69565b73ffffffffffffffffffffffffffffffffffffffff1614611312576040517f08c379a000000000000000000000000000000000000000000000000000000000815260040161130990612664565b60405180910390fd5b565b6000600760009054906101000a900473ffffffffffffffffffffffffffffffffffffffff16905081600760006101000a81548173ffffffffffffffffffffffffffffffffffffffff021916908373ffffffffffffffffffffffffffffffffffffffff1602179055508173ffffffffffffffffffffffffffffffffffffffff168173ffffffffffffffffffffffffffffffffffffffff167f8be0079c531659141344cd1fd0a4f28419497f9722a3daafe3b4186f6b6457e060405160405180910390a35050565b8173ffffffffffffffffffffffffffffffffffffffff168373ffffffffffffffffffffffffffffffffffffffff161415611449576040517f08c379a0000000000000000000000000000000000000000000000000000000008152600401611440906125a4565b60405180910390fd5b80600560008573ffffffffffffffffffffffffffffffffffffffff1673ffffffffffffffffffffffffffffffffffffffff16815260200190815260200160002060008473ffffffffffffffffffffffffffffffffffffffff1673ffffffffffffffffffffffffffffffffffffffff16815260200190815260200160002060006101000a81548160ff0219169083151502179055508173ffffffffffffffffffffffffffffffffffffffff168373ffffffffffffffffffffffffffffffffffffffff167f17307eab39ab6107e8899845ad3d59bd9653f200f220920489ca2b5937696c318360405161153a91906124c7565b60405180910390a3505050565b61155284848461102f565b61155e8484848461190a565b61159d576040517f08c379a000000000000000000000000000000000000000000000000000000000815260040161159490612504565b60405180910390fd5b50505050565b6115ac82611894565b6115eb576040517f08c379a00000000000000000000000000000000000000000000000000000000081526004016115e2906125e4565b60405180910390fd5b80600660008481526020019081526020016000209080519060200190611612929190611c71565b505050565b606060405180602001604052806000815250905090565b606061163982610e8e565b6000611643611617565b90506000815111611663576040518060200160405280600081525061168e565b8061166d84611aa1565b60405160200161167e929190612427565b6040516020818303038152906040525b915050919050565b6001816000016000828254019250508190555050565b600081600001549050919050565b600073ffffffffffffffffffffffffffffffffffffffff168273ffffffffffffffffffffffffffffffffffffffff16141561172a576040517f08c379a000000000000000000000000000000000000000000000000000000000815260040161172190612624565b60405180910390fd5b61173381611894565b15611773576040517f08c379a000000000000000000000000000000000000000000000000000000000815260040161176a90612564565b60405180910390fd5b61177f60008383611900565b6001600360008473ffffffffffffffffffffffffffffffffffffffff1673ffffffffffffffffffffffffffffffffffffffff16815260200190815260200160002060008282546117cf91906127f4565b92505081905550816002600083815260200190815260200160002060006101000a81548173ffffffffffffffffffffffffffffffffffffffff021916908373ffffffffffffffffffffffffffffffffffffffff160217905550808273ffffffffffffffffffffffffffffffffffffffff16600073ffffffffffffffffffffffffffffffffffffffff167fddf252ad1be2c89b69c2b068fc378daa952ba7f163c4a11628f55a4df523b3ef60405160405180910390a461189060008383611905565b5050565b60008073ffffffffffffffffffffffffffffffffffffffff166002600084815260200190815260200160002060009054906101000a900473ffffffffffffffffffffffffffffffffffffffff1673ffffffffffffffffffffffffffffffffffffffff1614159050919050565b505050565b505050565b600061192b8473ffffffffffffffffffffffffffffffffffffffff16611c4e565b15611a94578373ffffffffffffffffffffffffffffffffffffffff1663150b7a02611954610ed9565b8786866040518563ffffffff1660e01b8152600401611976949392919061247b565b602060405180830381600087803b15801561199057600080fd5b505af19250505080156119c157506040513d601f19601f820116820180604052508101906119be919061201d565b60015b611a44573d80600081146119f1576040519150601f19603f3d011682016040523d82523d6000602084013e6119f6565b606091505b50600081511415611a3c576040517f08c379a0000000000000000000000000000000000000000000000000000000008152600401611a3390612504565b60405180910390fd5b805181602001fd5b63150b7a0260e01b7bffffffffffffffffffffffffffffffffffffffffffffffffffffffff1916817bffffffffffffffffffffffffffffffffffffffffffffffffffffffff191614915050611a99565b600190505b949350505050565b60606000821415611ae9576040518060400160405280600181526020017f30000000000000000000000000000000000000000000000000000000000000008152509050611c49565b600082905060005b60008214611b1b578080611b04906129c8565b915050600a82611b14919061284a565b9150611af1565b60008167ffffffffffffffff811115611b5d577f4e487b7100000000000000000000000000000000000000000000000000000000600052604160045260246000fd5b6040519080825280601f01601f191660200182016040528015611b8f5781602001600182028036833780820191505090505b5090505b60008514611c4257600182611ba8919061287b565b9150600a85611bb79190612a11565b6030611bc391906127f4565b60f81b818381518110611bff577f4e487b7100000000000000000000000000000000000000000000000000000000600052603260045260246000fd5b60200101907effffffffffffffffffffffffffffffffffffffffffffffffffffffffffffff1916908160001a905350600a85611c3b919061284a565b9450611b93565b8093505050505b919050565b6000808273ffffffffffffffffffffffffffffffffffffffff163b119050919050565b828054611c7d90612965565b90600052602060002090601f016020900481019282611c9f5760008555611ce6565b82601f10611cb857805160ff1916838001178555611ce6565b82800160010185558215611ce6579182015b82811115611ce5578251825591602001919060010190611cca565b5b509050611cf39190611cf7565b5090565b5b80821115611d10576000816000905550600101611cf8565b5090565b6000611d27611d2284612744565b61271f565b905082815260208101848484011115611d3f57600080fd5b611d4a848285612923565b509392505050565b6000611d65611d6084612775565b61271f565b905082815260208101848484011115611d7d57600080fd5b611d88848285612923565b509392505050565b600081359050611d9f81612ef8565b92915050565b600081359050611db481612f0f565b92915050565b600081359050611dc981612f26565b92915050565b600081519050611dde81612f26565b92915050565b600082601f830112611df557600080fd5b8135611e05848260208601611d14565b91505092915050565b600082601f830112611e1f57600080fd5b8135611e2f848260208601611d52565b91505092915050565b600081359050611e4781612f3d565b92915050565b600060208284031215611e5f57600080fd5b6000611e6d84828501611d90565b91505092915050565b60008060408385031215611e8957600080fd5b6000611e9785828601611d90565b9250506020611ea885828601611d90565b9150509250929050565b600080600060608486031215611ec757600080fd5b6000611ed586828701611d90565b9350506020611ee686828701611d90565b9250506040611ef786828701611e38565b9150509250925092565b60008060008060808587031215611f1757600080fd5b6000611f2587828801611d90565b9450506020611f3687828801611d90565b9350506040611f4787828801611e38565b925050606085013567ffffffffffffffff811115611f6457600080fd5b611f7087828801611de4565b91505092959194509250565b60008060408385031215611f8f57600080fd5b6000611f9d85828601611d90565b9250506020611fae85828601611da5565b9150509250929050565b60008060408385031215611fcb57600080fd5b6000611fd985828601611d90565b9250506020611fea85828601611e38565b9150509250929050565b60006020828403121561200657600080fd5b600061201484828501611dba565b91505092915050565b60006020828403121561202f57600080fd5b600061203d84828501611dcf565b91505092915050565b60006020828403121561205857600080fd5b600082013567ffffffffffffffff81111561207257600080fd5b61207e84828501611e0e565b91505092915050565b60006020828403121561209957600080fd5b60006120a784828501611e38565b91505092915050565b600080604083850312156120c357600080fd5b60006120d185828601611e38565b925050602083013567ffffffffffffffff8111156120ee57600080fd5b6120fa85828601611e0e565b9150509250929050565b61210d816128af565b82525050565b61211c816128c1565b82525050565b600061212d826127a6565b61213781856127bc565b9350612147818560208601612932565b61215081612afe565b840191505092915050565b6000612166826127b1565b61217081856127d8565b9350612180818560208601612932565b61218981612afe565b840191505092915050565b600061219f826127b1565b6121a981856127e9565b93506121b9818560208601612932565b80840191505092915050565b60006121d26032836127d8565b91506121dd82612b0f565b604082019050919050565b60006121f56026836127d8565b915061220082612b5e565b604082019050919050565b60006122186025836127d8565b915061222382612bad565b604082019050919050565b600061223b601c836127d8565b915061224682612bfc565b602082019050919050565b600061225e6024836127d8565b915061226982612c25565b604082019050919050565b60006122816019836127d8565b915061228c82612c74565b602082019050919050565b60006122a46029836127d8565b91506122af82612c9d565b604082019050919050565b60006122c7602e836127d8565b91506122d282612cec565b604082019050919050565b60006122ea603e836127d8565b91506122f582612d3b565b604082019050919050565b600061230d6020836127d8565b915061231882612d8a565b602082019050919050565b60006123306019836127d8565b915061233b82612db3565b602082019050919050565b60006123536020836127d8565b915061235e82612ddc565b602082019050919050565b60006123766018836127d8565b915061238182612e05565b602082019050919050565b60006123996021836127d8565b91506123a482612e2e565b604082019050919050565b60006123bc6000836127cd565b91506123c782612e7d565b600082019050919050565b60006123df6010836127d8565b91506123ea82612e80565b602082019050919050565b6000612402602e836127d8565b915061240d82612ea9565b604082019050919050565b61242181612919565b82525050565b60006124338285612194565b915061243f8284612194565b91508190509392505050565b6000612456826123af565b9150819050919050565b60006020820190506124756000830184612104565b92915050565b60006080820190506124906000830187612104565b61249d6020830186612104565b6124aa6040830185612418565b81810360608301526124bc8184612122565b905095945050505050565b60006020820190506124dc6000830184612113565b92915050565b600060208201905081810360008301526124fc818461215b565b905092915050565b6000602082019050818103600083015261251d816121c5565b9050919050565b6000602082019050818103600083015261253d816121e8565b9050919050565b6000602082019050818103600083015261255d8161220b565b9050919050565b6000602082019050818103600083015261257d8161222e565b9050919050565b6000602082019050818103600083015261259d81612251565b9050919050565b600060208201905081810360008301526125bd81612274565b9050919050565b600060208201905081810360008301526125dd81612297565b9050919050565b600060208201905081810360008301526125fd816122ba565b9050919050565b6000602082019050818103600083015261261d816122dd565b9050919050565b6000602082019050818103600083015261263d81612300565b9050919050565b6000602082019050818103600083015261265d81612323565b9050919050565b6000602082019050818103600083015261267d81612346565b9050919050565b6000602082019050818103600083015261269d81612369565b9050919050565b600060208201905081810360008301526126bd8161238c565b9050919050565b600060208201905081810360008301526126dd816123d2565b9050919050565b600060208201905081810360008301526126fd816123f5565b9050919050565b60006020820190506127196000830184612418565b92915050565b600061272961273a565b90506127358282612997565b919050565b6000604051905090565b600067ffffffffffffffff82111561275f5761275e612acf565b5b61276882612afe565b9050602081019050919050565b600067ffffffffffffffff8211156127905761278f612acf565b5b61279982612afe565b9050602081019050919050565b600081519050919050565b600081519050919050565b600082825260208201905092915050565b600081905092915050565b600082825260208201905092915050565b600081905092915050565b60006127ff82612919565b915061280a83612919565b9250827fffffffffffffffffffffffffffffffffffffffffffffffffffffffffffffffff0382111561283f5761283e612a42565b5b828201905092915050565b600061285582612919565b915061286083612919565b9250826128705761286f612a71565b5b828204905092915050565b600061288682612919565b915061289183612919565b9250828210156128a4576128a3612a42565b5b828203905092915050565b60006128ba826128f9565b9050919050565b60008115159050919050565b60007fffffffff0000000000000000000000000000000000000000000000000000000082169050919050565b600073ffffffffffffffffffffffffffffffffffffffff82169050919050565b6000819050919050565b82818337600083830152505050565b60005b83811015612950578082015181840152602081019050612935565b8381111561295f576000848401525b50505050565b6000600282049050600182168061297d57607f821691505b6020821081141561299157612990612aa0565b5b50919050565b6129a082612afe565b810181811067ffffffffffffffff821117156129bf576129be612acf565b5b80604052505050565b60006129d382612919565b91507fffffffffffffffffffffffffffffffffffffffffffffffffffffffffffffffff821415612a0657612a05612a42565b5b600182019050919050565b6000612a1c82612919565b9150612a2783612919565b925082612a3757612a36612a71565b5b828206905092915050565b7f4e487b7100000000000000000000000000000000000000000000000000000000600052601160045260246000fd5b7f4e487b7100000000000000000000000000000000000000000000000000000000600052601260045260246000fd5b7f4e487b7100000000000000000000000000000000000000000000000000000000600052602260045260246000fd5b7f4e487b7100000000000000000000000000000000000000000000000000000000600052604160045260246000fd5b6000601f19601f8301169050919050565b7f4552433732313a207472616e7366657220746f206e6f6e20455243373231526560008201527f63656976657220696d706c656d656e7465720000000000000000000000000000602082015250565b7f4f776e61626c653a206e6577206f776e657220697320746865207a65726f206160008201527f6464726573730000000000000000000000000000000000000000000000000000602082015250565b7f4552433732313a207472616e736665722066726f6d20696e636f72726563742060008201527f6f776e6572000000000000000000000000000000000000000000000000000000602082015250565b7f4552433732313a20746f6b656e20616c7265616479206d696e74656400000000600082015250565b7f4552433732313a207472616e7366657220746f20746865207a65726f2061646460008201527f7265737300000000000000000000000000000000000000000000000000000000602082015250565b7f4552433732313a20617070726f766520746f2063616c6c657200000000000000600082015250565b7f4552433732313a2061646472657373207a65726f206973206e6f74206120766160008201527f6c6964206f776e65720000000000000000000000000000000000000000000000602082015250565b7f45524337323155524953746f726167653a2055524920736574206f66206e6f6e60008201527f6578697374656e7420746f6b656e000000000000000000000000000000000000602082015250565b7f4552433732313a20617070726f76652063616c6c6572206973206e6f7420746f60008201527f6b656e206f776e6572206e6f7220617070726f76656420666f7220616c6c0000602082015250565b7f4552433732313a206d696e7420746f20746865207a65726f2061646472657373600082015250565b7f4e6f206574686572206c65667420746f20776974686472617700000000000000600082015250565b7f4f776e61626c653a2063616c6c6572206973206e6f7420746865206f776e6572600082015250565b7f4552433732313a20696e76616c696420746f6b656e2049440000000000000000600082015250565b7f4552433732313a20617070726f76616c20746f2063757272656e74206f776e6560008201527f7200000000000000000000000000000000000000000000000000000000000000602082015250565b50565b7f5472616e73666572206661696c65642e00000000000000000000000000000000600082015250565b7f4552433732313a2063616c6c6572206973206e6f7420746f6b656e206f776e6560008201527f72206e6f7220617070726f766564000000000000000000000000000000000000602082015250565b612f01816128af565b8114612f0c57600080fd5b50565b612f18816128c1565b8114612f2357600080fd5b50565b612f2f816128cd565b8114612f3a57600080fd5b50565b612f4681612919565b8114612f5157600080fd5b5056fea2646970667358221220cc1cbef012387883223ae7e99a6222675e46c9efe59f6c7a35354846d1d3d4fd64736f6c63430008040033",
  "linkReferences": {},
  "deployedLinkReferences": {}
}